:020000040800F2
:100000000000032055020008A1020008A102000818
:10001000A1020008A1020008A102000800000000DF
:10002000000000000000000000000000A102000825
:10003000A102000800000000A1020008A1020008BF
:10004000A1020008A1020008A1020008A102000804
:10005000A1020008A1020008A1020008A1020008F4
:10006000A1020008A1020008A1020008A1020008E4
:10007000A1020008A1020008A1020008A1020008D4
:10008000A1020008A1020008A1020008A1020008C4
:10009000A1020008A1020008A1020008A1020008B4
:1000A000A1020008A1020008A1020008A1020008A4
:1000B000A1020008A1020008A1020008A102000894
:1000C000A1020008A1020008A1020008A102000884
:1000D000A1020008A1020008A1020008A102000874
:1000E000A1020008A1020008A1020008A102000864
:1000F000A1020008A1020008A1020008A102000854
:10010000A1020008A1020008A1020008A102000843
:10011000A1020008A1020008A1020008A102000833
:10012000A1020008A1020008A1020008A102000823
:10013000A1020008A1020008A1020008A102000813
:10014000A1020008A1020008A1020008A102000803
:10015000A1020008A1020008A1020008A1020008F3
:10016000A1020008A1020008A1020008A1020008E3
:10017000A1020008A1020008A1020008000000007E
:10018000A1020008A1020008A1020008A1020008C3
:10019000A1020008A1020008A1020008A1020008B3
:0C01A000A1020008A1020008A102000852
:1001AC0010B5054C237833B9044B13B10448AFF3A5
:1001BC0000800123237010BD00000020000000000F
:1001CC00EC02000808B5034B1BB103490348AFF31D
:1001DC00008008BD0000000004000020EC020008B4
:1001EC00174AD2F8303843F00203C2F83038154BB6
:1001FC00D3F8002442F48042C3F80024D3F8082436
:10020C0042F48042C3F80824D3F8182442F40002C4
:10021C00C3F8182406E00B4AD2F8183443F08003D4
:10022C00C2F81834074BD3F8103413F0800FF2D106
:10023C00044AD2F8183443F40003C2F81834F1E736
:10024C000030024000000240DFF830D00C480D496D
:10025C000D4A002302E0D458C4500433C4188C4215
:10026C00F9D30A4A0A4C002301E013600432A2427B
:10027C00FBD300F011F8FFF7B3FF70470000032029
:10028C0000000020000000200C03000800000020EB
:10029C001C000020FEE7000070B50D4D0D4C641BDA
:1002AC00A4100026A64209D10B4D0C4C00F018F8F6
:1002BC00641BA4100026A64205D170BD55F8043B62
:1002CC0098470136EEE755F8043B98470136F2E7BC
:1002DC0004030008040300080403000808030008D2
:1002EC00F8B500BFF8BC08BC9E467047F8B500BF17
:0802FC00F8BC08BC9E467047E7
:04030400D10100081B
:04030800AD0100083B
:040000050800025598
:00000001FF
